{
  "_format": "hh-sol-artifact-1",
  "contractName": "MyToken",
  "sourceName": "contracts/MyToken.sol",
  "abi": [
    {
      "inputs": [],
      "stateMutability": "nonpayable",
      "type": "constructor"
    },
    {
      "anonymous": false,
      "inputs": [
        {
          "indexed": true,
          "internalType": "address",
          "name": "owner",
          "type": "address"
        },
        {
          "indexed": true,
          "internalType": "address",
          "name": "approved",
          "type": "address"
        },
        {
          "indexed": true,
          "internalType": "uint256",
          "name": "tokenId",
          "type": "uint256"
        }
      ],
      "name": "Approval",
      "type": "event"
    },
    {
      "anonymous": false,
      "inputs": [
        {
          "indexed": true,
          "internalType": "address",
          "name": "owner",
          "type": "address"
        },
        {
          "indexed": true,
          "internalType": "address",
          "name": "operator",
          "type": "address"
        },
        {
          "indexed": false,
          "internalType": "bool",
          "name": "approved",
          "type": "bool"
        }
      ],
      "name": "ApprovalForAll",
      "type": "event"
    },
    {
      "anonymous": false,
      "inputs": [
        {
          "indexed": false,
          "internalType": "uint256",
          "name": "_fromTokenId",
          "type": "uint256"
        },
        {
          "indexed": false,
          "internalType": "uint256",
          "name": "_toTokenId",
          "type": "uint256"
        }
      ],
      "name": "BatchMetadataUpdate",
      "type": "event"
    },
    {
      "anonymous": false,
      "inputs": [
        {
          "indexed": false,
          "internalType": "uint256",
          "name": "_tokenId",
          "type": "uint256"
        }
      ],
      "name": "MetadataUpdate",
      "type": "event"
    },
    {
      "anonymous": false,
      "inputs": [
        {
          "indexed": true,
          "internalType": "address",
          "name": "previousOwner",
          "type": "address"
        },
        {
          "indexed": true,
          "internalType": "address",
          "name": "newOwner",
          "type": "address"
        }
      ],
      "name": "OwnershipTransferred",
      "type": "event"
    },
    {
      "anonymous": false,
      "inputs": [
        {
          "indexed": true,
          "internalType": "address",
          "name": "from",
          "type": "address"
        },
        {
          "indexed": true,
          "internalType": "address",
          "name": "to",
          "type": "address"
        },
        {
          "indexed": true,
          "internalType": "uint256",
          "name": "tokenId",
          "type": "uint256"
        }
      ],
      "name": "Transfer",
      "type": "event"
    },
    {
      "inputs": [
        {
          "internalType": "address",
          "name": "to",
          "type": "address"
        },
        {
          "internalType": "uint256",
          "name": "tokenId",
          "type": "uint256"
        }
      ],
      "name": "approve",
      "outputs": [],
      "stateMutability": "nonpayable",
      "type": "function"
    },
    {
      "inputs": [
        {
          "internalType": "address",
          "name": "owner",
          "type": "address"
        }
      ],
      "name": "balanceOf",
      "outputs": [
        {
          "internalType": "uint256",
          "name": "",
          "type": "uint256"
        }
      ],
      "stateMutability": "view",
      "type": "function"
    },
    {
      "inputs": [
        {
          "internalType": "uint256",
          "name": "tokenId",
          "type": "uint256"
        }
      ],
      "name": "burn",
      "outputs": [],
      "stateMutability": "nonpayable",
      "type": "function"
    },
    {
      "inputs": [
        {
          "internalType": "uint256",
          "name": "tokenId",
          "type": "uint256"
        }
      ],
      "name": "getApproved",
      "outputs": [
        {
          "internalType": "address",
          "name": "",
          "type": "address"
        }
      ],
      "stateMutability": "view",
      "type": "function"
    },
    {
      "inputs": [
        {
          "internalType": "address",
          "name": "owner",
          "type": "address"
        },
        {
          "internalType": "address",
          "name": "operator",
          "type": "address"
        }
      ],
      "name": "isApprovedForAll",
      "outputs": [
        {
          "internalType": "bool",
          "name": "",
          "type": "bool"
        }
      ],
      "stateMutability": "view",
      "type": "function"
    },
    {
      "inputs": [],
      "name": "name",
      "outputs": [
        {
          "internalType": "string",
          "name": "",
          "type": "string"
        }
      ],
      "stateMutability": "view",
      "type": "function"
    },
    {
      "inputs": [],
      "name": "owner",
      "outputs": [
        {
          "internalType": "address",
          "name": "",
          "type": "address"
        }
      ],
      "stateMutability": "view",
      "type": "function"
    },
    {
      "inputs": [
        {
          "internalType": "uint256",
          "name": "tokenId",
          "type": "uint256"
        }
      ],
      "name": "ownerOf",
      "outputs": [
        {
          "internalType": "address",
          "name": "",
          "type": "address"
        }
      ],
      "stateMutability": "view",
      "type": "function"
    },
    {
      "inputs": [],
      "name": "renounceOwnership",
      "outputs": [],
      "stateMutability": "nonpayable",
      "type": "function"
    },
    {
      "inputs": [
        {
          "internalType": "address",
          "name": "to",
          "type": "address"
        },
        {
          "internalType": "string",
          "name": "uri",
          "type": "string"
        }
      ],
      "name": "safeMint",
      "outputs": [],
      "stateMutability": "nonpayable",
      "type": "function"
    },
    {
      "inputs": [
        {
          "internalType": "address",
          "name": "from",
          "type": "address"
        },
        {
          "internalType": "address",
          "name": "to",
          "type": "address"
        },
        {
          "internalType": "uint256",
          "name": "tokenId",
          "type": "uint256"
        }
      ],
      "name": "safeTransferFrom",
      "outputs": [],
      "stateMutability": "nonpayable",
      "type": "function"
    },
    {
      "inputs": [
        {
          "internalType": "address",
          "name": "from",
          "type": "address"
        },
        {
          "internalType": "address",
          "name": "to",
          "type": "address"
        },
        {
          "internalType": "uint256",
          "name": "tokenId",
          "type": "uint256"
        },
        {
          "internalType": "bytes",
          "name": "data",
          "type": "bytes"
        }
      ],
      "name": "safeTransferFrom",
      "outputs": [],
      "stateMutability": "nonpayable",
      "type": "function"
    },
    {
      "inputs": [
        {
          "internalType": "address",
          "name": "operator",
          "type": "address"
        },
        {
          "internalType": "bool",
          "name": "approved",
          "type": "bool"
        }
      ],
      "name": "setApprovalForAll",
      "outputs": [],
      "stateMutability": "nonpayable",
      "type": "function"
    },
    {
      "inputs": [
        {
          "internalType": "bytes4",
          "name": "interfaceId",
          "type": "bytes4"
        }
      ],
      "name": "supportsInterface",
      "outputs": [
        {
          "internalType": "bool",
          "name": "",
          "type": "bool"
        }
      ],
      "stateMutability": "view",
      "type": "function"
    },
    {
      "inputs": [],
      "name": "symbol",
      "outputs": [
        {
          "internalType": "string",
          "name": "",
          "type": "string"
        }
      ],
      "stateMutability": "view",
      "type": "function"
    },
    {
      "inputs": [
        {
          "internalType": "uint256",
          "name": "tokenId",
          "type": "uint256"
        }
      ],
      "name": "tokenURI",
      "outputs": [
        {
          "internalType": "string",
          "name": "",
          "type": "string"
        }
      ],
      "stateMutability": "view",
      "type": "function"
    },
    {
      "inputs": [
        {
          "internalType": "address",
          "name": "from",
          "type": "address"
        },
        {
          "internalType": "address",
          "name": "to",
          "type": "address"
        },
        {
          "internalType": "uint256",
          "name": "tokenId",
          "type": "uint256"
        }
      ],
      "name": "transferFrom",
      "outputs": [],
      "stateMutability": "nonpayable",
      "type": "function"
    },
    {
      "inputs": [
        {
          "internalType": "address",
          "name": "newOwner",
          "type": "address"
        }
      ],
      "name": "transferOwnership",
      "outputs": [],
      "stateMutability": "nonpayable",
      "type": "function"
    }
  ],
  "bytecode": "0x60806040523480156200001157600080fd5b50604080518082018252600781526626bcaa37b5b2b760c91b6020808301918252835180850190945260038452624d544b60e81b9084015281519192916200005c91600091620000eb565b50805162000072906001906020840190620000eb565b5050506200008f620000896200009560201b60201c565b62000099565b620001ce565b3390565b600780546001600160a01b038381166001600160a01b0319831681179093556040519116919082907f8be0079c531659141344cd1fd0a4f28419497f9722a3daafe3b4186f6b6457e090600090a35050565b828054620000f99062000191565b90600052602060002090601f0160209004810192826200011d576000855562000168565b82601f106200013857805160ff191683800117855562000168565b8280016001018555821562000168579182015b82811115620001685782518255916020019190600101906200014b565b50620001769291506200017a565b5090565b5b808211156200017657600081556001016200017b565b600181811c90821680620001a657607f821691505b60208210811415620001c857634e487b7160e01b600052602260045260246000fd5b50919050565b61196080620001de6000396000f3fe608060405234801561001057600080fd5b50600436106101165760003560e01c8063715018a6116100a2578063b88d4fde11610071578063b88d4fde14610239578063c87b56dd1461024c578063d204c45e1461025f578063e985e9c514610272578063f2fde38b146102ae57600080fd5b8063715018a6146102055780638da5cb5b1461020d57806395d89b411461021e578063a22cb4651461022657600080fd5b806323b872dd116100e957806323b872dd1461019857806342842e0e146101ab57806342966c68146101be5780636352211e146101d157806370a08231146101e457600080fd5b806301ffc9a71461011b57806306fdde0314610143578063081812fc14610158578063095ea7b314610183575b600080fd5b61012e61012936600461146b565b6102c1565b60405190151581526020015b60405180910390f35b61014b6102d2565b60405161013a91906114e0565b61016b6101663660046114f3565b610364565b6040516001600160a01b03909116815260200161013a565b610196610191366004611528565b61038b565b005b6101966101a6366004611552565b6104a6565b6101966101b9366004611552565b6104d8565b6101966101cc3660046114f3565b6104f3565b61016b6101df3660046114f3565b610524565b6101f76101f236600461158e565b610584565b60405190815260200161013a565b61019661060a565b6007546001600160a01b031661016b565b61014b61061e565b6101966102343660046115a9565b61062d565b610196610247366004611671565b61063c565b61014b61025a3660046114f3565b610674565b61019661026d3660046116ed565b61067f565b61012e61028036600461174f565b6001600160a01b03918216600090815260056020908152604080832093909416825291909152205460ff1690565b6101966102bc36600461158e565b6106b6565b60006102cc8261072c565b92915050565b6060600080546102e190611782565b80601f016020809104026020016040519081016040528092919081815260200182805461030d90611782565b801561035a5780601f1061032f5761010080835404028352916020019161035a565b820191906000526020600020905b81548152906001019060200180831161033d57829003601f168201915b5050505050905090565b600061036f82610751565b506000908152600460205260409020546001600160a01b031690565b600061039682610524565b9050806001600160a01b0316836001600160a01b031614156104095760405162461bcd60e51b815260206004820152602160248201527f4552433732313a20617070726f76616c20746f2063757272656e74206f776e656044820152603960f91b60648201526084015b60405180910390fd5b336001600160a01b038216148061042557506104258133610280565b6104975760405162461bcd60e51b815260206004820152603d60248201527f4552433732313a20617070726f76652063616c6c6572206973206e6f7420746f60448201527f6b656e206f776e6572206f7220617070726f76656420666f7220616c6c0000006064820152608401610400565b6104a183836107b0565b505050565b6104b1335b8261081e565b6104cd5760405162461bcd60e51b8152600401610400906117bd565b6104a183838361089d565b6104a18383836040518060200160405280600081525061063c565b6104fc336104ab565b6105185760405162461bcd60e51b8152600401610400906117bd565b61052181610a01565b50565b6000818152600260205260408120546001600160a01b0316806102cc5760405162461bcd60e51b8152602060048201526018602482015277115490cdcc8c4e881a5b9d985b1a59081d1bdad95b88125160421b6044820152606401610400565b60006001600160a01b0382166105ee5760405162461bcd60e51b815260206004820152602960248201527f4552433732313a2061646472657373207a65726f206973206e6f7420612076616044820152683634b21037bbb732b960b91b6064820152608401610400565b506001600160a01b031660009081526003602052604090205490565b610612610a0a565b61061c6000610a64565b565b6060600180546102e190611782565b610638338383610ab6565b5050565b610646338361081e565b6106625760405162461bcd60e51b8152600401610400906117bd565b61066e84848484610b85565b50505050565b60606102cc82610bb8565b610687610a0a565b600061069260085490565b90506106a2600880546001019055565b6106ac8382610cc1565b6104a18183610cdb565b6106be610a0a565b6001600160a01b0381166107235760405162461bcd60e51b815260206004820152602660248201527f4f776e61626c653a206e6577206f776e657220697320746865207a65726f206160448201526564647265737360d01b6064820152608401610400565b61052181610a64565b60006001600160e01b03198216632483248360e11b14806102cc57506102cc82610dad565b6000818152600260205260409020546001600160a01b03166105215760405162461bcd60e51b8152602060048201526018602482015277115490cdcc8c4e881a5b9d985b1a59081d1bdad95b88125160421b6044820152606401610400565b600081815260046020526040902080546001600160a01b0319166001600160a01b03841690811790915581906107e582610524565b6001600160a01b03167f8c5be1e5ebec7d5bd14f71427d1e84f3dd0314c0f7b2291e5b200ac8c7c3b92560405160405180910390a45050565b60008061082a83610524565b9050806001600160a01b0316846001600160a01b0316148061087157506001600160a01b0380821660009081526005602090815260408083209388168352929052205460ff165b806108955750836001600160a01b031661088a84610364565b6001600160a01b0316145b949350505050565b826001600160a01b03166108b082610524565b6001600160a01b0316146108d65760405162461bcd60e51b81526004016104009061180a565b6001600160a01b0382166109385760405162461bcd60e51b8152602060048201526024808201527f4552433732313a207472616e7366657220746f20746865207a65726f206164646044820152637265737360e01b6064820152608401610400565b826001600160a01b031661094b82610524565b6001600160a01b0316146109715760405162461bcd60e51b81526004016104009061180a565b600081815260046020908152604080832080546001600160a01b03199081169091556001600160a01b0387811680865260038552838620805460001901905590871680865283862080546001019055868652600290945282852080549092168417909155905184937fddf252ad1be2c89b69c2b068fc378daa952ba7f163c4a11628f55a4df523b3ef91a4505050565b61052181610dfd565b6007546001600160a01b0316331461061c5760405162461bcd60e51b815260206004820181905260248201527f4f776e61626c653a2063616c6c6572206973206e6f7420746865206f776e65726044820152606401610400565b600780546001600160a01b038381166001600160a01b0319831681179093556040519116919082907f8be0079c531659141344cd1fd0a4f28419497f9722a3daafe3b4186f6b6457e090600090a35050565b816001600160a01b0316836001600160a01b03161415610b185760405162461bcd60e51b815260206004820152601960248201527f4552433732313a20617070726f766520746f2063616c6c6572000000000000006044820152606401610400565b6001600160a01b03838116600081815260056020908152604080832094871680845294825291829020805460ff191686151590811790915591519182527f17307eab39ab6107e8899845ad3d59bd9653f200f220920489ca2b5937696c31910160405180910390a3505050565b610b9084848461089d565b610b9c84848484610e3d565b61066e5760405162461bcd60e51b81526004016104009061184f565b6060610bc382610751565b60008281526006602052604081208054610bdc90611782565b80601f0160208091040260200160405190810160405280929190818152602001828054610c0890611782565b8015610c555780601f10610c2a57610100808354040283529160200191610c55565b820191906000526020600020905b815481529060010190602001808311610c3857829003601f168201915b505050505090506000610c7360408051602081019091526000815290565b9050805160001415610c86575092915050565b815115610cb8578082604051602001610ca09291906118a1565b60405160208183030381529060405292505050919050565b61089584610f4a565b610638828260405180602001604052806000815250610fbe565b6000828152600260205260409020546001600160a01b0316610d565760405162461bcd60e51b815260206004820152602e60248201527f45524337323155524953746f726167653a2055524920736574206f66206e6f6e60448201526d32bc34b9ba32b73a103a37b5b2b760911b6064820152608401610400565b60008281526006602090815260409091208251610d7592840190611386565b506040518281527ff8e1a15aba9398e019f0b49df1a4fde98ee17ae345cb5f6b5e2c27f5033e8ce79060200160405180910390a15050565b60006001600160e01b031982166380ac58cd60e01b1480610dde57506001600160e01b03198216635b5e139f60e01b145b806102cc57506301ffc9a760e01b6001600160e01b03198316146102cc565b610e0681610ff1565b60008181526006602052604090208054610e1f90611782565b1590506105215760008181526006602052604081206105219161140a565b60006001600160a01b0384163b15610f3f57604051630a85bd0160e11b81526001600160a01b0385169063150b7a0290610e819033908990889088906004016118d0565b602060405180830381600087803b158015610e9b57600080fd5b505af1925050508015610ecb575060408051601f3d908101601f19168201909252610ec89181019061190d565b60015b610f25573d808015610ef9576040519150601f19603f3d011682016040523d82523d6000602084013e610efe565b606091505b508051610f1d5760405162461bcd60e51b81526004016104009061184f565b805181602001fd5b6001600160e01b031916630a85bd0160e11b149050610895565b506001949350505050565b6060610f5582610751565b6000610f6c60408051602081019091526000815290565b90506000815111610f8c5760405180602001604052806000815250610fb7565b80610f9684611086565b604051602001610fa79291906118a1565b6040516020818303038152906040525b9392505050565b610fc88383611123565b610fd56000848484610e3d565b6104a15760405162461bcd60e51b81526004016104009061184f565b6000610ffc82610524565b905061100782610524565b600083815260046020908152604080832080546001600160a01b03199081169091556001600160a01b0385168085526003845282852080546000190190558785526002909352818420805490911690555192935084927fddf252ad1be2c89b69c2b068fc378daa952ba7f163c4a11628f55a4df523b3ef908390a45050565b60606000611093836112ae565b600101905060008167ffffffffffffffff8111156110b3576110b36115e5565b6040519080825280601f01601f1916602001820160405280156110dd576020820181803683370190505b5090508181016020015b600019016f181899199a1a9b1b9c1cb0b131b232b360811b600a86061a8153600a85049450846111165761111b565b6110e7565b509392505050565b6001600160a01b0382166111795760405162461bcd60e51b815260206004820181905260248201527f4552433732313a206d696e7420746f20746865207a65726f20616464726573736044820152606401610400565b6000818152600260205260409020546001600160a01b0316156111de5760405162461bcd60e51b815260206004820152601c60248201527f4552433732313a20746f6b656e20616c7265616479206d696e746564000000006044820152606401610400565b6000818152600260205260409020546001600160a01b0316156112435760405162461bcd60e51b815260206004820152601c60248201527f4552433732313a20746f6b656e20616c7265616479206d696e746564000000006044820152606401610400565b6001600160a01b038216600081815260036020908152604080832080546001019055848352600290915280822080546001600160a01b0319168417905551839291907fddf252ad1be2c89b69c2b068fc378daa952ba7f163c4a11628f55a4df523b3ef908290a45050565b60008072184f03e93ff9f4daa797ed6e38ed64bf6a1f0160401b83106112ed5772184f03e93ff9f4daa797ed6e38ed64bf6a1f0160401b830492506040015b6d04ee2d6d415b85acef81000000008310611319576d04ee2d6d415b85acef8100000000830492506020015b662386f26fc10000831061133757662386f26fc10000830492506010015b6305f5e100831061134f576305f5e100830492506008015b612710831061136357612710830492506004015b60648310611375576064830492506002015b600a83106102cc5760010192915050565b82805461139290611782565b90600052602060002090601f0160209004810192826113b457600085556113fa565b82601f106113cd57805160ff19168380011785556113fa565b828001600101855582156113fa579182015b828111156113fa5782518255916020019190600101906113df565b50611406929150611440565b5090565b50805461141690611782565b6000825580601f10611426575050565b601f01602090049060005260206000209081019061052191905b5b808211156114065760008155600101611441565b6001600160e01b03198116811461052157600080fd5b60006020828403121561147d57600080fd5b8135610fb781611455565b60005b838110156114a357818101518382015260200161148b565b8381111561066e5750506000910152565b600081518084526114cc816020860160208601611488565b601f01601f19169290920160200192915050565b602081526000610fb760208301846114b4565b60006020828403121561150557600080fd5b5035919050565b80356001600160a01b038116811461152357600080fd5b919050565b6000806040838503121561153b57600080fd5b6115448361150c565b946020939093013593505050565b60008060006060848603121561156757600080fd5b6115708461150c565b925061157e6020850161150c565b9150604084013590509250925092565b6000602082840312156115a057600080fd5b610fb78261150c565b600080604083850312156115bc57600080fd5b6115c58361150c565b9150602083013580151581146115da57600080fd5b809150509250929050565b634e487b7160e01b600052604160045260246000fd5b600067ffffffffffffffff80841115611616576116166115e5565b604051601f8501601f19908116603f0116810190828211818310171561163e5761163e6115e5565b8160405280935085815286868601111561165757600080fd5b858560208301376000602087830101525050509392505050565b6000806000806080858703121561168757600080fd5b6116908561150c565b935061169e6020860161150c565b925060408501359150606085013567ffffffffffffffff8111156116c157600080fd5b8501601f810187136116d257600080fd5b6116e1878235602084016115fb565b91505092959194509250565b6000806040838503121561170057600080fd5b6117098361150c565b9150602083013567ffffffffffffffff81111561172557600080fd5b8301601f8101851361173657600080fd5b611745858235602084016115fb565b9150509250929050565b6000806040838503121561176257600080fd5b61176b8361150c565b91506117796020840161150c565b90509250929050565b600181811c9082168061179657607f821691505b602082108114156117b757634e487b7160e01b600052602260045260246000fd5b50919050565b6020808252602d908201527f4552433732313a2063616c6c6572206973206e6f7420746f6b656e206f776e6560408201526c1c881bdc88185c1c1c9bdd9959609a1b606082015260800190565b60208082526025908201527f4552433732313a207472616e736665722066726f6d20696e636f72726563742060408201526437bbb732b960d91b606082015260800190565b60208082526032908201527f4552433732313a207472616e7366657220746f206e6f6e20455243373231526560408201527131b2b4bb32b91034b6b83632b6b2b73a32b960711b606082015260800190565b600083516118b3818460208801611488565b8351908301906118c7818360208801611488565b01949350505050565b6001600160a01b0385811682528416602082015260408101839052608060608201819052600090611903908301846114b4565b9695505050505050565b60006020828403121561191f57600080fd5b8151610fb78161145556fea2646970667358221220fa49073d2719d068891c176f95f48d3f5cedb5206323783bea228fcc40fc518d64736f6c63430008090033",
  "linkReferences": {},
  "deployedLinkReferences": {}
}