{
  "_format": "hh-sol-artifact-1",
  "contractName": "MyToken",
  "sourceName": "contracts/MyToken.sol",
  "abi": [
    {
      "inputs": [],
      "stateMutability": "nonpayable",
      "type": "constructor"
    },
    {
      "anonymous": false,
      "inputs": [
        {
          "indexed": true,
          "internalType": "address",
          "name": "owner",
          "type": "address"
        },
        {
          "indexed": true,
          "internalType": "address",
          "name": "approved",
          "type": "address"
        },
        {
          "indexed": true,
          "internalType": "uint256",
          "name": "tokenId",
          "type": "uint256"
        }
      ],
      "name": "Approval",
      "type": "event"
    },
    {
      "anonymous": false,
      "inputs": [
        {
          "indexed": true,
          "internalType": "address",
          "name": "owner",
          "type": "address"
        },
        {
          "indexed": true,
          "internalType": "address",
          "name": "operator",
          "type": "address"
        },
        {
          "indexed": false,
          "internalType": "bool",
          "name": "approved",
          "type": "bool"
        }
      ],
      "name": "ApprovalForAll",
      "type": "event"
    },
    {
      "anonymous": false,
      "inputs": [
        {
          "indexed": false,
          "internalType": "uint256",
          "name": "_fromTokenId",
          "type": "uint256"
        },
        {
          "indexed": false,
          "internalType": "uint256",
          "name": "_toTokenId",
          "type": "uint256"
        }
      ],
      "name": "BatchMetadataUpdate",
      "type": "event"
    },
    {
      "anonymous": false,
      "inputs": [
        {
          "indexed": false,
          "internalType": "uint256",
          "name": "_tokenId",
          "type": "uint256"
        }
      ],
      "name": "MetadataUpdate",
      "type": "event"
    },
    {
      "anonymous": false,
      "inputs": [
        {
          "indexed": true,
          "internalType": "address",
          "name": "from",
          "type": "address"
        },
        {
          "indexed": true,
          "internalType": "address",
          "name": "to",
          "type": "address"
        },
        {
          "indexed": true,
          "internalType": "uint256",
          "name": "tokenId",
          "type": "uint256"
        }
      ],
      "name": "Transfer",
      "type": "event"
    },
    {
      "inputs": [
        {
          "internalType": "address",
          "name": "to",
          "type": "address"
        },
        {
          "internalType": "uint256",
          "name": "tokenId",
          "type": "uint256"
        }
      ],
      "name": "approve",
      "outputs": [],
      "stateMutability": "nonpayable",
      "type": "function"
    },
    {
      "inputs": [
        {
          "internalType": "address",
          "name": "owner",
          "type": "address"
        }
      ],
      "name": "balanceOf",
      "outputs": [
        {
          "internalType": "uint256",
          "name": "",
          "type": "uint256"
        }
      ],
      "stateMutability": "view",
      "type": "function"
    },
    {
      "inputs": [
        {
          "internalType": "uint256",
          "name": "tokenId",
          "type": "uint256"
        }
      ],
      "name": "burn",
      "outputs": [],
      "stateMutability": "nonpayable",
      "type": "function"
    },
    {
      "inputs": [
        {
          "internalType": "uint256",
          "name": "tokenId",
          "type": "uint256"
        }
      ],
      "name": "getApproved",
      "outputs": [
        {
          "internalType": "address",
          "name": "",
          "type": "address"
        }
      ],
      "stateMutability": "view",
      "type": "function"
    },
    {
      "inputs": [
        {
          "internalType": "address",
          "name": "owner",
          "type": "address"
        },
        {
          "internalType": "address",
          "name": "operator",
          "type": "address"
        }
      ],
      "name": "isApprovedForAll",
      "outputs": [
        {
          "internalType": "bool",
          "name": "",
          "type": "bool"
        }
      ],
      "stateMutability": "view",
      "type": "function"
    },
    {
      "inputs": [],
      "name": "name",
      "outputs": [
        {
          "internalType": "string",
          "name": "",
          "type": "string"
        }
      ],
      "stateMutability": "view",
      "type": "function"
    },
    {
      "inputs": [
        {
          "internalType": "uint256",
          "name": "tokenId",
          "type": "uint256"
        }
      ],
      "name": "ownerOf",
      "outputs": [
        {
          "internalType": "address",
          "name": "",
          "type": "address"
        }
      ],
      "stateMutability": "view",
      "type": "function"
    },
    {
      "inputs": [
        {
          "internalType": "address",
          "name": "to",
          "type": "address"
        },
        {
          "internalType": "string",
          "name": "uri",
          "type": "string"
        }
      ],
      "name": "safeMint",
      "outputs": [],
      "stateMutability": "nonpayable",
      "type": "function"
    },
    {
      "inputs": [
        {
          "internalType": "address",
          "name": "from",
          "type": "address"
        },
        {
          "internalType": "address",
          "name": "to",
          "type": "address"
        },
        {
          "internalType": "uint256",
          "name": "tokenId",
          "type": "uint256"
        }
      ],
      "name": "safeTransferFrom",
      "outputs": [],
      "stateMutability": "nonpayable",
      "type": "function"
    },
    {
      "inputs": [
        {
          "internalType": "address",
          "name": "from",
          "type": "address"
        },
        {
          "internalType": "address",
          "name": "to",
          "type": "address"
        },
        {
          "internalType": "uint256",
          "name": "tokenId",
          "type": "uint256"
        },
        {
          "internalType": "bytes",
          "name": "data",
          "type": "bytes"
        }
      ],
      "name": "safeTransferFrom",
      "outputs": [],
      "stateMutability": "nonpayable",
      "type": "function"
    },
    {
      "inputs": [
        {
          "internalType": "address",
          "name": "operator",
          "type": "address"
        },
        {
          "internalType": "bool",
          "name": "approved",
          "type": "bool"
        }
      ],
      "name": "setApprovalForAll",
      "outputs": [],
      "stateMutability": "nonpayable",
      "type": "function"
    },
    {
      "inputs": [
        {
          "internalType": "bytes4",
          "name": "interfaceId",
          "type": "bytes4"
        }
      ],
      "name": "supportsInterface",
      "outputs": [
        {
          "internalType": "bool",
          "name": "",
          "type": "bool"
        }
      ],
      "stateMutability": "view",
      "type": "function"
    },
    {
      "inputs": [],
      "name": "symbol",
      "outputs": [
        {
          "internalType": "string",
          "name": "",
          "type": "string"
        }
      ],
      "stateMutability": "view",
      "type": "function"
    },
    {
      "inputs": [
        {
          "internalType": "uint256",
          "name": "tokenId",
          "type": "uint256"
        }
      ],
      "name": "tokenURI",
      "outputs": [
        {
          "internalType": "string",
          "name": "",
          "type": "string"
        }
      ],
      "stateMutability": "view",
      "type": "function"
    },
    {
      "inputs": [
        {
          "internalType": "address",
          "name": "from",
          "type": "address"
        },
        {
          "internalType": "address",
          "name": "to",
          "type": "address"
        },
        {
          "internalType": "uint256",
          "name": "tokenId",
          "type": "uint256"
        }
      ],
      "name": "transferFrom",
      "outputs": [],
      "stateMutability": "nonpayable",
      "type": "function"
    }
  ],
  "bytecode": "0x60806040523480156200001157600080fd5b50604080518082018252600781526626bcaa37b5b2b760c91b6020808301918252835180850190945260038452624d544b60e81b9084015281519192916200005c916000916200007b565b508051620000729060019060208401906200007b565b5050506200015e565b828054620000899062000121565b90600052602060002090601f016020900481019282620000ad5760008555620000f8565b82601f10620000c857805160ff1916838001178555620000f8565b82800160010185558215620000f8579182015b82811115620000f8578251825591602001919060010190620000db565b50620001069291506200010a565b5090565b5b808211156200010657600081556001016200010b565b600181811c908216806200013657607f821691505b602082108114156200015857634e487b7160e01b600052602260045260246000fd5b50919050565b6117d5806200016e6000396000f3fe608060405234801561001057600080fd5b50600436106100f55760003560e01c80636352211e11610097578063b88d4fde11610066578063b88d4fde146101ff578063c87b56dd14610212578063d204c45e14610225578063e985e9c51461023857600080fd5b80636352211e146101b057806370a08231146101c357806395d89b41146101e4578063a22cb465146101ec57600080fd5b8063095ea7b3116100d3578063095ea7b31461016257806323b872dd1461017757806342842e0e1461018a57806342966c681461019d57600080fd5b806301ffc9a7146100fa57806306fdde0314610122578063081812fc14610137575b600080fd5b61010d6101083660046112e0565b610274565b60405190151581526020015b60405180910390f35b61012a610285565b6040516101199190611355565b61014a610145366004611368565b610317565b6040516001600160a01b039091168152602001610119565b61017561017036600461139d565b61033e565b005b6101756101853660046113c7565b610459565b6101756101983660046113c7565b61048b565b6101756101ab366004611368565b6104a6565b61014a6101be366004611368565b6104d7565b6101d66101d1366004611403565b610537565b604051908152602001610119565b61012a6105bd565b6101756101fa36600461141e565b6105cc565b61017561020d3660046114e6565b6105db565b61012a610220366004611368565b610613565b610175610233366004611562565b61061e565b61010d6102463660046115c4565b6001600160a01b03918216600090815260056020908152604080832093909416825291909152205460ff1690565b600061027f8261064d565b92915050565b606060008054610294906115f7565b80601f01602080910402602001604051908101604052809291908181526020018280546102c0906115f7565b801561030d5780601f106102e25761010080835404028352916020019161030d565b820191906000526020600020905b8154815290600101906020018083116102f057829003601f168201915b5050505050905090565b600061032282610672565b506000908152600460205260409020546001600160a01b031690565b6000610349826104d7565b9050806001600160a01b0316836001600160a01b031614156103bc5760405162461bcd60e51b815260206004820152602160248201527f4552433732313a20617070726f76616c20746f2063757272656e74206f776e656044820152603960f91b60648201526084015b60405180910390fd5b336001600160a01b03821614806103d857506103d88133610246565b61044a5760405162461bcd60e51b815260206004820152603d60248201527f4552433732313a20617070726f76652063616c6c6572206973206e6f7420746f60448201527f6b656e206f776e6572206f7220617070726f76656420666f7220616c6c00000060648201526084016103b3565b61045483836106d1565b505050565b610464335b8261073f565b6104805760405162461bcd60e51b81526004016103b390611632565b6104548383836107be565b610454838383604051806020016040528060008152506105db565b6104af3361045e565b6104cb5760405162461bcd60e51b81526004016103b390611632565b6104d481610922565b50565b6000818152600260205260408120546001600160a01b03168061027f5760405162461bcd60e51b8152602060048201526018602482015277115490cdcc8c4e881a5b9d985b1a59081d1bdad95b88125160421b60448201526064016103b3565b60006001600160a01b0382166105a15760405162461bcd60e51b815260206004820152602960248201527f4552433732313a2061646472657373207a65726f206973206e6f7420612076616044820152683634b21037bbb732b960b91b60648201526084016103b3565b506001600160a01b031660009081526003602052604090205490565b606060018054610294906115f7565b6105d733838361092b565b5050565b6105e5338361073f565b6106015760405162461bcd60e51b81526004016103b390611632565b61060d848484846109fa565b50505050565b606061027f82610a2d565b600061062960075490565b9050610639600780546001019055565b6106438382610b36565b6104548183610b50565b60006001600160e01b03198216632483248360e11b148061027f575061027f82610c22565b6000818152600260205260409020546001600160a01b03166104d45760405162461bcd60e51b8152602060048201526018602482015277115490cdcc8c4e881a5b9d985b1a59081d1bdad95b88125160421b60448201526064016103b3565b600081815260046020526040902080546001600160a01b0319166001600160a01b0384169081179091558190610706826104d7565b6001600160a01b03167f8c5be1e5ebec7d5bd14f71427d1e84f3dd0314c0f7b2291e5b200ac8c7c3b92560405160405180910390a45050565b60008061074b836104d7565b9050806001600160a01b0316846001600160a01b0316148061079257506001600160a01b0380821660009081526005602090815260408083209388168352929052205460ff165b806107b65750836001600160a01b03166107ab84610317565b6001600160a01b0316145b949350505050565b826001600160a01b03166107d1826104d7565b6001600160a01b0316146107f75760405162461bcd60e51b81526004016103b39061167f565b6001600160a01b0382166108595760405162461bcd60e51b8152602060048201526024808201527f4552433732313a207472616e7366657220746f20746865207a65726f206164646044820152637265737360e01b60648201526084016103b3565b826001600160a01b031661086c826104d7565b6001600160a01b0316146108925760405162461bcd60e51b81526004016103b39061167f565b600081815260046020908152604080832080546001600160a01b03199081169091556001600160a01b0387811680865260038552838620805460001901905590871680865283862080546001019055868652600290945282852080549092168417909155905184937fddf252ad1be2c89b69c2b068fc378daa952ba7f163c4a11628f55a4df523b3ef91a4505050565b6104d481610c72565b816001600160a01b0316836001600160a01b0316141561098d5760405162461bcd60e51b815260206004820152601960248201527f4552433732313a20617070726f766520746f2063616c6c65720000000000000060448201526064016103b3565b6001600160a01b03838116600081815260056020908152604080832094871680845294825291829020805460ff191686151590811790915591519182527f17307eab39ab6107e8899845ad3d59bd9653f200f220920489ca2b5937696c31910160405180910390a3505050565b610a058484846107be565b610a1184848484610cb2565b61060d5760405162461bcd60e51b81526004016103b3906116c4565b6060610a3882610672565b60008281526006602052604081208054610a51906115f7565b80601f0160208091040260200160405190810160405280929190818152602001828054610a7d906115f7565b8015610aca5780601f10610a9f57610100808354040283529160200191610aca565b820191906000526020600020905b815481529060010190602001808311610aad57829003601f168201915b505050505090506000610ae860408051602081019091526000815290565b9050805160001415610afb575092915050565b815115610b2d578082604051602001610b15929190611716565b60405160208183030381529060405292505050919050565b6107b684610dbf565b6105d7828260405180602001604052806000815250610e33565b6000828152600260205260409020546001600160a01b0316610bcb5760405162461bcd60e51b815260206004820152602e60248201527f45524337323155524953746f726167653a2055524920736574206f66206e6f6e60448201526d32bc34b9ba32b73a103a37b5b2b760911b60648201526084016103b3565b60008281526006602090815260409091208251610bea928401906111fb565b506040518281527ff8e1a15aba9398e019f0b49df1a4fde98ee17ae345cb5f6b5e2c27f5033e8ce79060200160405180910390a15050565b60006001600160e01b031982166380ac58cd60e01b1480610c5357506001600160e01b03198216635b5e139f60e01b145b8061027f57506301ffc9a760e01b6001600160e01b031983161461027f565b610c7b81610e66565b60008181526006602052604090208054610c94906115f7565b1590506104d45760008181526006602052604081206104d49161127f565b60006001600160a01b0384163b15610db457604051630a85bd0160e11b81526001600160a01b0385169063150b7a0290610cf6903390899088908890600401611745565b602060405180830381600087803b158015610d1057600080fd5b505af1925050508015610d40575060408051601f3d908101601f19168201909252610d3d91810190611782565b60015b610d9a573d808015610d6e576040519150601f19603f3d011682016040523d82523d6000602084013e610d73565b606091505b508051610d925760405162461bcd60e51b81526004016103b3906116c4565b805181602001fd5b6001600160e01b031916630a85bd0160e11b1490506107b6565b506001949350505050565b6060610dca82610672565b6000610de160408051602081019091526000815290565b90506000815111610e015760405180602001604052806000815250610e2c565b80610e0b84610efb565b604051602001610e1c929190611716565b6040516020818303038152906040525b9392505050565b610e3d8383610f98565b610e4a6000848484610cb2565b6104545760405162461bcd60e51b81526004016103b3906116c4565b6000610e71826104d7565b9050610e7c826104d7565b600083815260046020908152604080832080546001600160a01b03199081169091556001600160a01b0385168085526003845282852080546000190190558785526002909352818420805490911690555192935084927fddf252ad1be2c89b69c2b068fc378daa952ba7f163c4a11628f55a4df523b3ef908390a45050565b60606000610f0883611123565b600101905060008167ffffffffffffffff811115610f2857610f2861145a565b6040519080825280601f01601f191660200182016040528015610f52576020820181803683370190505b5090508181016020015b600019016f181899199a1a9b1b9c1cb0b131b232b360811b600a86061a8153600a8504945084610f8b57610f90565b610f5c565b509392505050565b6001600160a01b038216610fee5760405162461bcd60e51b815260206004820181905260248201527f4552433732313a206d696e7420746f20746865207a65726f206164647265737360448201526064016103b3565b6000818152600260205260409020546001600160a01b0316156110535760405162461bcd60e51b815260206004820152601c60248201527f4552433732313a20746f6b656e20616c7265616479206d696e7465640000000060448201526064016103b3565b6000818152600260205260409020546001600160a01b0316156110b85760405162461bcd60e51b815260206004820152601c60248201527f4552433732313a20746f6b656e20616c7265616479206d696e7465640000000060448201526064016103b3565b6001600160a01b038216600081815260036020908152604080832080546001019055848352600290915280822080546001600160a01b0319168417905551839291907fddf252ad1be2c89b69c2b068fc378daa952ba7f163c4a11628f55a4df523b3ef908290a45050565b60008072184f03e93ff9f4daa797ed6e38ed64bf6a1f0160401b83106111625772184f03e93ff9f4daa797ed6e38ed64bf6a1f0160401b830492506040015b6d04ee2d6d415b85acef8100000000831061118e576d04ee2d6d415b85acef8100000000830492506020015b662386f26fc1000083106111ac57662386f26fc10000830492506010015b6305f5e10083106111c4576305f5e100830492506008015b61271083106111d857612710830492506004015b606483106111ea576064830492506002015b600a831061027f5760010192915050565b828054611207906115f7565b90600052602060002090601f016020900481019282611229576000855561126f565b82601f1061124257805160ff191683800117855561126f565b8280016001018555821561126f579182015b8281111561126f578251825591602001919060010190611254565b5061127b9291506112b5565b5090565b50805461128b906115f7565b6000825580601f1061129b575050565b601f0160209004906000526020600020908101906104d491905b5b8082111561127b57600081556001016112b6565b6001600160e01b0319811681146104d457600080fd5b6000602082840312156112f257600080fd5b8135610e2c816112ca565b60005b83811015611318578181015183820152602001611300565b8381111561060d5750506000910152565b600081518084526113418160208601602086016112fd565b601f01601f19169290920160200192915050565b602081526000610e2c6020830184611329565b60006020828403121561137a57600080fd5b5035919050565b80356001600160a01b038116811461139857600080fd5b919050565b600080604083850312156113b057600080fd5b6113b983611381565b946020939093013593505050565b6000806000606084860312156113dc57600080fd5b6113e584611381565b92506113f360208501611381565b9150604084013590509250925092565b60006020828403121561141557600080fd5b610e2c82611381565b6000806040838503121561143157600080fd5b61143a83611381565b91506020830135801515811461144f57600080fd5b809150509250929050565b634e487b7160e01b600052604160045260246000fd5b600067ffffffffffffffff8084111561148b5761148b61145a565b604051601f8501601f19908116603f011681019082821181831017156114b3576114b361145a565b816040528093508581528686860111156114cc57600080fd5b858560208301376000602087830101525050509392505050565b600080600080608085870312156114fc57600080fd5b61150585611381565b935061151360208601611381565b925060408501359150606085013567ffffffffffffffff81111561153657600080fd5b8501601f8101871361154757600080fd5b61155687823560208401611470565b91505092959194509250565b6000806040838503121561157557600080fd5b61157e83611381565b9150602083013567ffffffffffffffff81111561159a57600080fd5b8301601f810185136115ab57600080fd5b6115ba85823560208401611470565b9150509250929050565b600080604083850312156115d757600080fd5b6115e083611381565b91506115ee60208401611381565b90509250929050565b600181811c9082168061160b57607f821691505b6020821081141561162c57634e487b7160e01b600052602260045260246000fd5b50919050565b6020808252602d908201527f4552433732313a2063616c6c6572206973206e6f7420746f6b656e206f776e6560408201526c1c881bdc88185c1c1c9bdd9959609a1b606082015260800190565b60208082526025908201527f4552433732313a207472616e736665722066726f6d20696e636f72726563742060408201526437bbb732b960d91b606082015260800190565b60208082526032908201527f4552433732313a207472616e7366657220746f206e6f6e20455243373231526560408201527131b2b4bb32b91034b6b83632b6b2b73a32b960711b606082015260800190565b600083516117288184602088016112fd565b83519083019061173c8183602088016112fd565b01949350505050565b6001600160a01b038581168252841660208201526040810183905260806060820181905260009061177890830184611329565b9695505050505050565b60006020828403121561179457600080fd5b8151610e2c816112ca56fea26469706673582212207a0b5a23ddf19a4e7c68f75fca6a7fb24f9292e2f435df173eeec0b66c2584c164736f6c63430008090033",
  "linkReferences": {},
  "deployedLinkReferences": {}
}